S01B0000574946492D73696D706C654765742D455854312E73726563B4
S214400000E8184120296740002767400027674000DE
S2144000102767400027674000276740000000000031
S2144000200000000000000000000000003115400005
S2144000302767400000000000D115400039164000F8
S2144000402767400027674000276740002767400033
S2144000502767400027674000276740002767400023
S2144000602767400000000000796140008D61400035
S214400070A16140002767400027674000276740008F
S214400080B5614000C96140002767400027674000CF
S21440009027674000276740002767400027674000E3
S2144000A027674000276740002767400027674000D3
S2144000B027674000276740002767400027674000C3
S2144000C027674000276740002767400027674000B3
S2144000D0000000002767400000000000276740003F
S2144000E02767400027674000276740002767400093
S2144000F02767400027674000276740002767400083
S2144001002767400027674000276740002767400072
S21440011027674000000000000000000000000000CC
S2144001202767400027674000276740002767400052
S2144001302767400000000000276740002767400010
S21440014010B5054C237833B9044B13B10448AFF3CC
S21440015000800123237010BDF809402000000000F5
S2144001605C9C45000C4B43B10C480D4910B5AFF3B1
S21440017000800C48036823B910BD0A48036833B9A9
S2144001807047094B002BF7D0BDE810401847064B88
S214400190002BF5D0184700BF000000005C9C4500CF
S2144001A0FC0940205C9C4500000000002DE9F04121
S2144001B04FF400429E4B5A60BFF34F8FBFF36F8F92
S2144001C09C4B0022C3F850225A6942F400325A61CE
S2144001D0BFF34F8FBFF36F8FD3F88070C7F34E36A1
S2144001E007F007000430C7F3C907B7FA87FE0EF0DA
S2144001F01F0EBFF34F8F4FF0FF3404FA00FC06FA91
S21440020000F004FA0EF407FA0EFE1D463A46734610
S21440021040EA0301C5F86012013A2344B2F1FF3FB9
S214400220F6D1013E6044B6F1FF3FEFD1BFF34F8FAA
S214400230804B5A6942F480325A61BFF34F8FBFF306
S2144002406F8F7D4A7D495160A1F580715160BFF343
S2144002504F8FBFF36F8FD3F8902222F00102C3F87E
S2144002609022D3F8942222F00102C3F89422BFF3DE
S2144002704F8FBFF36F8F0A20714CA0470B20A047CB
S2144002800C20A0471020A0471120A0476D4E4FF4E9
S2144002908078C6F81080C6F8A080C6F830806A4CD1
S2144002A04FF400656561C4F8A0506566C4F8905088
S2144002B065652562C4F88450236F23F40063236782
S2144002C0636F23F400636367C4F8C050C4F8D45027
S2144002D0C4F8B0504FF400132366C4F890306365FA
S2144002E06362C4F88030226F22F400122267626F85
S2144002F022F4001262676360544AD2F8143143F025
S2144003001003C2F8143102F5B22210231366C2F865
S214400310903053655362C2F88030116F19431167AD
S214400320516F19435167536008222266C4F89020E3
S21440033062656262C4F88020216F21F0080121675F
S214400340616F21F00801616762602366C4F89030EF
S21440035063656362C4F88030226F22F01002226721
S214400360626F22F010026267636000234FF400520F
S2144003704FF060513046364FB84700234FF080422A
S2144003804FF060513046B8470123FF224FF00061DE
S2144003903046B84701233F224FF000612D48B8470A
S2144003A001234FF4C0324FF000612046B847012386
S2144003B042464FF000613046B84701232A464FF088
S2144003C000613046B84701234FF400224FF00061E9
S2144003D02148B84700234FF400724FF08051304612
S2144003E0B8474FF4007130461C4B98474FF0805149
S2144003F06F201B4CA0474FF080517220A0474FF013
S21440040080517020A0474FF080517120A0474FF098
S21440041060511D20A0474FF060510120A0474FF08B
S21440042060510520A04705200E4B9847BDE8F08157
S21440043050180E4000ED00E0000C0E400C08005A2C
S2144004408163400000120E40000E0E4000800840BF
S2144004507D5E400000160E4000140E40835D400056
S214400460895F4000515F400030B40468B4F5A07F17
S21440047002D340F23F1404601468B4F5A07F02D360
S21440048040F23F1414600C68B4F5F07F02D340F29B
S214400490DF140C601C68B4F5F07F02D340F2DF1422
S2144004A01C6004681568AC4201D9056014600A688F
S2144004B01868824201D908601A6030BC7047000054
S2144004C010B582B001200D4B98470D4C20460D4B81
S2144004D098472C2120460C4B984720460B4B984774
S2144004E000230193019BFE2B05D8019B013301930A
S2144004F0019BFE2BF9D902B010BD00BF6D5F4000D6
S21440050000C00240E9664000F9664000F1664000DF
S214400510F0B583B007460E46154601201A4B98475D
S2144005201A4C20461A4B984739462046194B98474E
S2144005302046194B984700230193019BFE2B05D874
S214400540019B01330193019BFE2BF9D90DB903B0F2
S214400550F0BD0120114B98470C4C20460C4B984759
S2144005602A46314620460E4B984720460A4B984727
S21440057000230193019B5E2BE9D8019B0133019335
S214400580019B5E2BF9D9E2E76D5F400000C0024058
S214400590E9664000F9664000F1664000515F400061
S2144005A0155C400070B582B005460E4601200D4BE6
S2144005B098470D4C20460D4B9847324629462046D4
S2144005C00B4B984720460B4B984700230193019BC3
S2144005D0FE2B05D8019B01330193019BFE2BF9D9D5
S2144005E002B070BD515F400000C00240E966400066
S2144005F0155C4000F1664000014630B1034A044BAA
S214400600013BFDD19142FAD870477047A186010060
S214400610A086010000B583B058B948238DF807304E
S21440062001220DF107013620044B984703B05DF8D0
S21440063004FBE8238DF80730F2E700BF11054000C1
S21440064010B584B0ADF80E00013A0244ADF80C2067
S214400650ADF80A10013B1944ADF80810030A8DF8AE
S21440066004308DF80500C2F307238DF806308DF868
S214400670072004220DEB02012A20104CA04700223E
S21440068011461046A0479DF80B308DF804309DF873
S2144006900A308DF805309DF809308DF806309DF803
S2144006A008308DF8073004220DEB02012B20A047BE
S2144006B0002211461046A04704B010BD1105400068
S2144006C008B5002211462920014B984708BD00BFB7
S2144006D01105400010B4C0F30744C0F30721064B91
S2144006E003F570721C705970987003339342F9D1B9
S2144006F05DF8044B704700BF140A402010B584B024
S214400700ADF80600ADF80410030A8DF80C30C0B200
S2144007108DF80D008DF80E308DF80F00042203A9D9
S2144007202A200E4CA047002211461046A0479DF8AE
S21440073005208DF80C209DF804308DF80D308DF88E
S2144007400E208DF80F30042203A92B20A04700224C
S21440075011461046A04704B010BD00BF110540002A
S2144007602DE9F04186B0804600240494304B019336
S214400770C0230293032303932E4D2F4A01A92846F4
S2144007802E4B984728462E4B984728462D4B984741
S21440079028462D4B98472246214601202B4EB047EF
S2144007A0C8202B4DA847224621461120B047C820D6
S2144007B0A84706AF482307F8013D012239463620B0
S2144007C0B0476420A84704238DF8173001223946E5
S2144007D0CF20B0476420A84706238DF81730012263
S2144007E039463A20B0476420A8472246214613207F
S2144007F0B0476420A847174B98476420A847204630
S214400800154B98476420A847B8F80430B8F800203D
S21440081021462046114DA847D8F80800104B984767
S214400820214620460F4B9847204606B0BDE8F0814B
S214400830002D310100C0024000A3E11125664000B2
S214400840F1664000E3664000DD664000110540006A
S214400850F9054000C106400015064000410640002C
S214400860D5064000FD0640002DE9F04184B00390D7
S2144008700291019204AA42F8103D134601AA02A929
S21440088003A8224CA047BDF80C00BDF80810009BFA
S21440089001335B1A019A0132121A9BB292B21C4C77
S2144008A0A0471C4B98470399019D691A009D013546
S2144008B0029BED1A01FB0555174BA3FB05231B0AAC
S2144008C063B15C1EDFF858804FF47077134E39469C
S2144008D04046B047013CB4F1FF3FF8D10E49A1FB7A
S2144008E00531090A01EB8101A5EB811101EB4101BC
S2144008F00B480A4B98474FF4F0734FF4A072002110
S2144009000846034CA04704B0BDE8F08169044000A7
S21440091041064000C1044000CDCCCCCCA5054000EB
S214400920140A4020002A4AD02DE9F84F0746884648
S21440093015465600C6F103060024DFF888A005E0F9
S214400940063606EB84060134A54235D3A7422CBFB3
S214400950A7EB040B4FF0000BA8452CBFA8EB0501F6
S214400960002107EB04090B464A465846D04708EB99
S21440097005010B464A465846D047AF422CBFA7EB28
S214400980050B4FF0000BA0452CBFA8EB040100213F
S21440099007EB05090B464A465846D04708EB040184
S2144009A00B464A465846D047002EC9DB631B0A36DC
S2144009B006EB8306013DC6E70020BDE8F88F012020
S2144009C0704700BF6908400010B584B0039002919C
S2144009D0013A10440190013B194404AB43F8101D02
S2144009E001AA02A903A8134CA047BDF80C00BDF805
S2144009F00810009B01335B1A019A0132121A9BB20F
S214400A0092B20D4CA0470399019A511A029A009B44
S214400A109A1A02FB01F202EB420206992C20074B7F
S214400A2098474FF4F0734FF4A07200210846A04751
S214400A3004B010BD69044000410640001105400066
S214400A4021B9436823F0010343607047436843F08D
S214400A500103436070470162704730B4856884681C
S214400A60A54203D085688468AC42FBD161B1C4F32B
S214400A70015000EB8005C4F3034000EB450014F43E
S214400A80800F18BF0C30086042B1C4F3023101EB4E
S214400A908101C4F3032000EB4101116043B1C4F36C
S214400AA0021202EB820204F00F0404EB42041C60C4
S214400AB030BC7047F0B4446814F0010F05D00C29E0
S214400AC003D90C394FF4800700E000271C4CA4FBE8
S214400AD00356F60806EB8605A3EB450343EA0613E2
S214400AE0A4FB0265ED0843EA053305EB8505A2EB5A
S214400AF0450543EA05233B43A4FB0142D20843EAAB
S214400B00025302EB8202A1EB420143EA01418369B0
S214400B1013F0040FFBD0036843F0010303608369BE
S214400B2013F0010FFBD00123C3618160036823F0FB
S214400B3001030360C06A00F00100F0BC704700BFCC
S214400B40CDCCCCCCF0B4049EC568C468A54203D0D6
S214400B50C568C468AC42FBD199B1C4F3033000EB1E
S214400B608000C4F3032707EB4007C4F3021000EBF2
S214400B70800504F00F0000EB4500642505FB00707F
S214400B80086042B1C4F3005081000844C4F30341F6
S214400B9001EB4001116043B1C4F3017202EB8202E3
S214400BA0C4F3036101EB42021A6016B1C4F3425427
S214400BB03460F0BC7047000070B42A4DA5FB034675
S214400BC0F608039C640544EA067406EB8606A3EB27
S214400BD0460344EA0363A5FB0264E40843EA04537D
S214400BE004EB8404A2EB440243EA02421E4BA3FBFE
S214400BF001439B0942EA03121C4BA3FB01435B09DA
S214400C00A5FB0364E40804EB8404A3EB44031A4303
S214400C10A5FB0143DB0803EB8304A1EB440142EA56
S214400C200122A5FB0315ED0805EB8505A3EB45055D
S214400C3042EA0532836913F0040FFBD0036843F0A1
S214400C4002030360836913F0010FFBD00123C361E5
S214400C50C260036823F002030360C06A00F002002B
S214400C6070BC7047CDCCCCCCD34D62101F85EB51B9
S214400C70F8B50B78032B14D115460C46064610469D
S214400C800B4B98476768A368DB1B98420CD102461B
S214400C902946F019074B9847003018BF01204042BC
S214400CA0F8BD4FF0FF30F8BD4FF0FF30F8BD00BF45
S214400CB0417E40001D7F40002DE9F04F4768D0F848
S214400CC00080424540F2718211F80850002D00F035
S214400CD06C824FF0FF3C4FF0000E01EB020B464695
S214400CE086E00D2D7AD03DD9202D77D0222D3CD1CF
S214400CF0741C0460A24240F2CB810D5D002D00F0D2
S214400D00C981222D40F00781002B00F07C82446888
S214400D10099DA54240F2C080651C45604FEA041814
S214400D2003EB0804C4F808C0C4F804C0C4F80CE0D8
S214400D30002C00F0B18005684FF0030903F80890D6
S214400D4001366660A560C4F80CE001378468002B65
S214400D5044D0B4F1FF3F41D003EB0414E5680135BD
S214400D60E5603BE0093D012D38D90568AA4240F2CE
S214400D70E38101EB05084C5D002C40F0D081DBE1BF
S214400D805B2DF2D101374BB34468099EA64240F230
S214400D902782661C4660260103EB0608C8F808C092
S214400DA0C8F804C0C8F80CE0B8F1000F00F01B8289
S214400DB08468B4F1FF3F06D003EB0419D9F80C4021
S214400DC00134C9F80C407B2D0CBF012402249C55ED
S214400DD00468C8F804404468013C846006680136EC
S214400DE00660B24240F2E1818D5D002D00F0DD816B
S214400DF02C2D00F057817FF674AF5D2D0AD005D8B4
S214400E003A2DBDD14468013C8460E7E77B2DB9D0DC
S214400E107D2DAAD1002BE1D07D2D0CBF4FF00109CE
S214400E204FF0020945686C1E00F1E68105F18055D9
S214400E30013D03EB0515B24603E0103D013C00F1D1
S214400E40DB81A8466E68B6F1FF3FF6D0AE68B6F1D5
S214400E50FF3FF2D156462D784D4540F0C781C0F849
S214400E6008C00136C8F80860B4F1FF3F00F0C18101
S214400E70002CB3DB03EB041604E0013C103EB4F157
S214400E80FF3FABD07568B5F1FF3FF6D0B568B5F11A
S214400E90FF3FF2D18460A1E706604FF0FF3727E0BE
S214400EA0A51C0560AA4226D94D5D25B304F103086A
S214400EB001EB08090634A2464446D04608E00460E2
S214400EC0444518D0D94516D019F8015B013495B180
S214400ED025F0200AAAF1410A5FFA8AFABAF1050F0C
S214400EE0EDD9303DEDB2092DE9D906606FF0010726
S214400EF03846BDE8F08F0468013C0460046801345D
S214400F000460A24240F2C8800D5D002D00F0BE8015
S214400F10222D3FF4F9AE5C2DF0D1651CAA42EDD9E6
S214400F2005604D5D223D532D00F2AC800FF2040863
S214400F3058F825F0FD0E4000851040008510400012
S214400F408510400085104000851040008510400008
S214400F5085104000851040008510400085104000F8
S214400F608510400085104000FD0E40008510400072
S214400F7085104000851040008510400085104000D8
S214400F8085104000851040008510400085104000C8
S214400F9085104000851040008510400085104000B8
S214400FA085104000851040008510400085104000A8
S214400FB08510400085104000851040008510400098
S214400FC08510400085104000851040008510400088
S214400FD08510400085104000851040008510400078
S214400FE08510400085104000851040008510400068
S214400FF08510400085104000851040008510400058
S2144010008510400085104000851040008510400047
S214401010851040008510400085104000FD0E4000C1
S2144010208510400085104000851040008510400027
S21440103085104000FD0E40008510400085104000A1
S21440104085104000FD0E4000851040008510400091
S21440105085104000851040008510400085104000F7
S21440106085104000FD0E4000851040008510400071
S21440107085104000FD0E400085104000FD0E4000EB
S214401080A10E400006606FF0010731E7B04604E06D
S214401090B04602E0B04600E0B046C0F800806FF0D0
S2144010A0020725E7002B3FF499AE8468B4F1FF3F72
S2144010B03FF494AE24011C5D013CE4B2012C7FF663
S2144010C08DAE45686E1E3FF589AE03EB051503E011
S2144010D0103D013E3FF582AE15F8104C013CE4B29F
S2144010E0012CF5D855F80C4CB4F1FF3FF0D055F82C
S2144010F0084CB4F1FF3FEBD186606FE6092C03D372
S2144011000A2C19D90D2C17D0203CE4B25E2C40D8BE
S21440111001350560AA420FD018F8014F64B1202C63
S2144011200AD0EBD93A2C07D004D95D2C04D07D2CBC
S214401130EAD101E02C2CE7D17BB34468099DA54257
S2144011402FD9651C456025015C19C4F808C0C4F851
S21440115004C0C4F80CE024B3D0F800804FF0040973
S21440116003F805906660C4F80880C4F80CE004688C
S214401170013C046001378468002B3FF42FAEB4F185
S214401180FF3F3FF42BAE03EB0414E5680135E56002
S21440119024E606606FF00107AAE6013D05600137C8
S2144011A01CE606604FF0FF37A2E6002B3FF4A0AEE9
S2144011B041684A1E3FF59CAE03EB011303E0103B2B
S2144011C0013A3FF595AE53F80C1CB1F1FF3FF6D00F
S2144011D053F8081CB1F1FF3FF1D16FF0020787E6E4
S2144011E04FF0FF3784E64FF0FF3781E66FF0010798
S2144011F07EE66FF001077BE6B4F1FF3F7FF4EEAD8D
S2144012006FF0010774E60137E8E500BF2DE9F04FBF
S214401210FFB006468846664B9847741E002319461C
S2144012201F4601E01F460133834207D014F8012FC2
S2144012307B2AF7D07D2A08BF1946F4E7C91B01313F
S214401240F0195C4B9847074600237B937C934FF0FE
S214401250FF337D93564B98471E23009303AB0246BD
S21440126039467BA8544CA047B0F100090CDBB9F1D5
S214401270000F03DD9DF80C30012B0AD04F48504B31
S21440128098477FB0BDE8F08F49464E484C4B98474C
S214401290F7E7B9F1010FF4DD0124DFF864A14A4D08
S2144012A0DFF860B10EE0013403AB03EB04135A6879
S2144012B09968BB188A1A45494046454EB04701349E
S2144012C0A145DEDD03AB03EB0416524631463846F5
S2144012D0A8470028E7D05A4631463846A84708B9B6
S2144012E00134ECE73B4A31463846A84708B9013452
S2144012F0E5E7394A31463846A84708B90134DEE7BB
S214401300364A31463846A84730B1354A31463846DF
S214401310A84778B90134D2E7013403AB03EB041392
S2144013205A689968BB188A1A284908F15000284E0E
S214401330B047C4E72B4A31463846A84730B12A4A18
S21440134031463846A84778B90134B8E7013403AB8C
S21440135003EB04135A689968BB188A1A1B4908F1AC
S21440136053001B4EB047AAE7204A31463846A847A6
S21440137008B90134A3E71E4A31463846A84708B99B
S21440138001349CE71B4A31463846A84708B9013421
S21440139095E7194A31463846A84708B901348EE7DA
S2144013A0164A31463846A847002888D1013486E791
S2144013B0417E4000C17F4000B90C4000A0E04000A4
S2144013C0B576400084E04000710C4000B8E0400034
S2144013D04D7A4000C8E04000D0E04000DCE04000ED
S2144013E0E0E04000E8E04000F4E04000FCE0400080
S2144013F008E1400014E140001CE1400024E14000C8
S214401400B4E04000C0E0400000F1080343604FF005
S214401410FF328260C360036100230360704700238D
S2144014200361704743684B609A688A609A68516067
S21440143099600861036801330360704730B40D68F3
S214401440B5F1FF3F02D000F1080202E0026904E075
S2144014501A4653681C68A542FAD253684B60996096
S2144014608A605160086103680133036030BC70478E
S21440147003694268816891608268416851605A6831
S214401480904205D000220261186801381860704703
S21440149082685A60F6E700000D4B1B68B3F1FF3FC9
S2144014A00AD04FF0800372B683F31188BFF36F8F74
S2144014B0BFF34F8F62B6FEE74FF0800372B683F3FA
S2144014C01188BFF36F8FBFF34F8F62B6FEE700BF42
S2144014D00C00402006480068006880F3088862B622
S2144014E061B6BFF34F8FBFF36F8F00DF00BF0000C2
S2144014F008ED00E0DFF80C00016841F4700101607F
S2144015007047000088ED00E04FF0807340F8043CE0
S21440151040F8081C054B40F80C3C40F8202C6FF077
S214401520020340F8243C4438704700BF99144000FA
S214401530064B19680868B0E8F04F80F30988BFF397
S2144015406F8F4FF0000080F311887047E4DD402035
S214401550704700BF4FF0800372B683F31188BFF325
S2144015606F8FBFF34F8F62B60B4A13680133136019
S214401570012B0FD1094B1B6813F0FF0F0AD04FF019
S214401580800372B683F31188BFF36F8FBFF34F8F1C
S21440159062B6FEE7704700BF0C00402004ED00E056
S2144015A00A4B1B6853B94FF0800372B683F3118819
S2144015B0BFF36F8FBFF34F8F62B6FEE7013B034A20
S2144015C013600BB983F31188704700BF0C004020AE
S2144015D0EFF30980BFF36F8F154B1A681EF0100F9C
S2144015E008BF20ED108A20E9F04F10604DF8043D0A
S2144015F04FF0800072B680F31188BFF34F8FBFF371
S2144016006F8F62B601F0AAF84FF0000080F31188A1
S21440161008BC19680868B0E8F04F1EF0100F08BF05
S214401620B0EC108A80F30988BFF36F8F704700BF15
S214401630E4DD4020704700BF08B5EFF311834FF05C
S214401640800272B682F31188BFF36F8FBFF34F8F5D
S21440165062B6054B984718B14FF08052034B1A605C
S214401660002383F3118808BDC923400004ED00E041
S214401670034A044B1A600722043B1A60704700BFB7
S214401680BF27090014E000E000B583B0254B1A7868
S214401690D2B20192FF221A701B78DBB28DF803306B
S2144016A09DF8033003F080031F4A137007221F4B38
S2144016B01A609DF8033013F0800F10D0062200E029
S2144016C00A469DF803305B00DBB28DF803309DF888
S2144016D00330511E13F0800FF2D1144B1A60134A98
S2144016E013681B0203F4E0631360019BDBB20D4AF0
S2144016F013700F4B1A6842F460021A601A6842F080
S21440170060421A600B4B984700220B4B1A600B4BFB
S21440171098470B4A136843F040431360094B984779
S214401720094B984700E400E0D40D4020D80D4020F7
S21440173020ED00E0711640000C004020F5144000FB
S21440174034EF00E0D514400099144000EFF30583D1
S2144017500F2B11D9124A9B5CDBB2124A12789A427E
S2144017600AD94FF0800372B683F31188BFF36F8FA8
S214401770BFF34F8F62B6FEE70B4B1B6803F4E06384
S2144017800A4A126893420AD94FF0800372B683F32E
S2144017901188BFF36F8FBFF34F8F62B6FEE7704777
S2144017A0F0E300E0D40D40200CED00E0D80D4020E2
S2144017B038B5044610F0070F02D020F0070408346E
S2144017C0114B9847114B1B6893B1114B1B681C4437
S2144017D0A34213D24CF6F77294420FD80B4A1568C0
S2144017E01D440B4B1C600B4B98474DB1284638BDEB
S2144017F0094B23F00703054A1360E6E7054B984775
S214401800064B98470025F1E7AD234000DC0D40200D
S214401810E0DD402015254000E80D40205B7040008C
S21440182050B14FF0800372B683F31188BFF36F8FC9
S214401830BFF34F8F62B6FEE77047000038B50446E8
S2144018401546026C5AB90368002B2ED140681B4BD4
S214401850984700236360A36B0133A36338BD6DB91B
S2144018608068174B9847A368226C1344A36062684D
S21440187093421CD32368A3600020ECE7C068104B5B
S2144018809847236C5B42E2681A44E26021688A42C9
S21440189002D262681344E360022D0AD1A36B53B1AF
S2144018A0A36B013BA3630020D5E70020D3E70020CD
S2144018B0D1E70020CFE70020CDE700BF5D2B4000FA
S2144018C0DD76400030B583B00190446D74B1A26BB4
S2144018D0E36B9A4215D34FF0800372B683F31188B8
S2144018E0BFF36F8FBFF34F8F62B6FEE74FF08003B4
S2144018F072B683F31188BFF36F8FBFF34F8F62B614
S214401900FEE7A26B934203D80025284603B030BDBD
S2144019100A4601A920460B4B98470546A36CB3F1EF
S214401920FF3F0AD1636A002BEFD004F12400064B38
S2144019309847002818BF0125E7E7A36C0133A36446
S214401940E3E700BF3D18400031294000026C72B109
S21440195010B50346C4681444C4604068844201D34A
S2144019601868D8600846D968014B984710BD70473C
S214401970DD764000F8B50446224B9847A36C002B12
S2144019801BDD214D214F224E0BE0636AABB104F1C3
S2144019902400B04778B9A36C013BA364A36C002B2A
S2144019A00BDD636D002BF0D000212046A8470128B0
S2144019B0F1D1B847EFE7B847EDE74FF0FF33A36400
S2144019C0144B98470F4B9847636C002B14DD2369E4
S2144019D093B104F110060E4D0C4F07E0636C013BCB
S2144019E06364636C002B07DD23692BB13046A84740
S2144019F00028F3D0B847F1E74FF0FF336364054B58
S214401A009847F8BD55154000C51840008D2A40003F
S214401A1031294000A115400038B508B304460D46AC
S214401A201D4B98472268216CE36B03FB01F3D018EB
S214401A3060600020A063A2605B1A1344E3604FF02E
S214401A40FF336364A364FDB923692BB104F110002E
S214401A50124B984701280ED0114B9847012038BDAD
S214401A604FF0800372B683F31188BFF36F8FBFF3D6
S214401A704F8F62B6FEE74FF080520A4B1A60BFF3B4
S214401A804F8FBFF36F8FE7E704F11000064DA8476E
S214401A9004F12400A847DFE75515400031294000EF
S214401AA0A115400004ED00E009144000F8B550B917
S214401AB04FF0800372B683F31188BFF36F8FBFF386
S214401AC04F8F62B6FEE7064617460D4689B101FBC4
S214401AD000F05930124B98470446E8B94FF080035F
S214401AE072B683F31188BFF36F8FBFF34F8F62B622
S214401AF0FEE758200A4B984704460028EED0206060
S214401B00E663256401212046064B984784F85070CA
S214401B10002363652046F8BD00F158030360EFE7F5
S214401B20B1174000191A40002DE9F04F85B00192D8
S214401B30B8B1044601B3022B2CD01D468846664BEE
S214401B409847002834D1019B002B38D04FF08003B3
S214401B5072B683F31188BFF36F8FBFF34F8F62B6B1
S214401B60FEE74FF0800372B683F31188BFF36F8FA2
S214401B70BFF34F8F62B6FEE7026C002ADBD04FF011
S214401B80800372B683F31188BFF36F8FBFF34F8F16
S214401B9062B6FEE7E26B012ACFD04FF0800372B602
S214401BA083F31188BFF36F8FBFF34F8F62B6FEE7A4
S214401BB000274A4EDFF850A1DFF82C9142E000277C
S214401BC0F7E72A4641462046454B9847636D9BB10A
S214401BD029462046434B9847012807D14FF080526C
S214401BE0414B1A60BFF34F8FBFF36F8F3F4B984701
S214401BF0012005B0BDE8F08F636A73B104F124009C
S214401C003B4B98470128F1D14FF08052364B1A6033
S214401C10BFF34F8FBFF36F8FE8E70028E6D04FF053
S214401C208052314B1A60BFF34F8FBFF36F8FDDE7A3
S214401C302E4B98470020DCE720462E4B98472E4BED
S214401C4098470127B047A26BE36B9A42B9D3022D5F
S214401C50B7D0019B002BEBD00FB902A8D047234B3F
S214401C609847264B9847B047636CB3F1FF3F01D186
S214401C7000236364A36CB3F1FF3F01D10023A36448
S214401C801A4B984701A902A81D4B9847E0B9B047A0
S214401C90D4F838B0E76B154B9847BB45CCD1019983
S214401CA004F11000174B98472046124B9847124BAA
S214401CB098470028C5D14FF08053C9F80030BFF38D
S214401CC04F8FBFF36F8FBCE720460A4B98470A4BAF
S214401CD0984700208DE700BF992A400055154000E0
S214401CE03D184000C518400004ED00E0A115400036
S214401CF0312940007519400015254000AD234000AD
S214401D00F92940002D284000C9294000002836D037
S214401D102DE9F041044600293CD0022B48D01E460F
S214401D2015468846354B9847EFF311874FF08003AA
S214401D3072B683F31188BFF36F8FBFF34F8F62B6CF
S214401D40A26BE36B9A4201D3022E4FD132464146F4
S214401D5020462B4B9847A36CB3F1FF3F41D1636DB0
S214401D60002B33D031462046264B9847002D3FD097
S214401D7001283DD1286087F31188BDE8F0814FF0F7
S214401D80800372B683F31188BFF36F8FBFF34F8F14
S214401D9062B6FEE7006C0028BFD04FF0800372B6F4
S214401DA083F31188BFF36F8FBFF34F8F62B6FEE7A2
S214401DB0E06B0128B3D04FF0800372B683F31188EE
S214401DC0BFF36F8FBFF34F8F62B6FEE7636A8BB188
S214401DD004F124000C4B984775B168B10120286087
S214401DE0C9E7A36C0133A3640120C4E70020C2E71F
S214401DF00120C0E70120BEE70120BCE74D174000A8
S214401E003D184000C5184000312940002DE9F047F4
S214401E1084B0019298B10446E1B198460F46614BB2
S214401E20984728BB019B53B34FF0800372B683F3A9
S214401E301188BFF36F8FBFF34F8F62B6FEE74FF048
S214401E40800372B683F31188BFF36F8FBFF34F8F53
S214401E5062B6FEE7026C002ADFD04FF0800372B60F
S214401E6083F31188BFF36F8FBFF34F8F62B6FEE7E1
S214401E7000264D4DDFF860A1DFF83C914BE0002690
S214401E80F7E7E56839462046484B9847B8F1000FD3
S214401E901DD1A36B013BA363236813B9444B9847FA
S214401EA0606023696BB104F11000424B98470128EB
S214401EB007D14FF08052404B1A60BFF34F8FBFF3AD
S214401EC06F8F3E4B9847012004B0BDE8F087E56031
S214401ED0636A002BF5D004F12400364B984700285F
S214401EE0EFD04FF08052344B1A60BFF34F8FBFF3A2
S214401EF06F8FE6E7314B98470020E5E7A8476068D4
S214401F002F4B98472D4B984730E020462D4B98470F
S214401F102D4B98470126A847A36B002BB1D1019BB8
S214401F20002BE7D00EB902A8D047244B9847274B42
S214401F309847A847636CB3F1FF3F01D10023636421
S214401F40A36CB3F1FF3F01D10023A3641B4B98471A
S214401F5001A902A81E4B9847E8B9A847A66B174B9D
S214401F609847002ED1D12368002BC7D0019904F1A1
S214401F702400184B98472046124B9847124B9847D8
S214401F800028C7D14FF08053C9F80030BFF34F8FB9
S214401F90BFF36F8FBEE720460A4B98470A4B9847D9
S214401FA0002091E7992A4000551540004D19400001
S214401FB0192C40003129400004ED00E0A1154000F6
S214401FC0B92A40007519400015254000AD23400051
S214401FD0F92940002D284000C929400010B40B4B79
S214401FE01B6853B10123094C54F8332032B10133F6
S214401FF0082BF9D15DF8044B70470023034A42F89A
S214402000331002EBC3035860F4E700BF7CF7402070
S21440201070B504460D4616460F4B9847636CB3F1B1
S214402020FF3F0BD0A36CB3F1FF3F0AD00B4B984752
S214402030A36B4BB120460A4B984770BD00236364A0
S214402040F0E70023A364F1E73246294604F1240072
S214402050044B9847EEE700BF55154000A1154000D9
S21440206075194000B1284000084B1B681B683BB1FF
S214402070064B1B68DB68DB685A68054B1A6070477E
S2144020804FF0FF32024B1A60704700BFE8DD402039
S21440209094DE402010B50F4B1B6858600E4B1B68F3
S2144020A098420ED304460D4B18680A4B1968043103
S2144020B00B4B98470B4B1B689C4201D2094B1C604C
S2144020C010BD094B1868034B19680431044B9847F8
S2144020D010BD00BFE4DD4020DCDE4020E8DD4020CF
S2144020E03D14400094DE4020ECDD40202DE9F04FCA
S2144020F083B00C9DDDF834A00E9E60B1042D15D93A
S2144021004FF0800372B683F31188BFF36F8FBFF32F
S2144021104F8F62B6FEE74FF0800372B683F31188A6
S214402120BFF36F8FBFF34F8F62B6FEE701909846BE
S21440213091460F4636B99000624B984706460028AF
S21440214000F09E8058205F4B98470446002800F0D9
S214402150948006634FEA8902A52130465A4B984739
S2144021606FF040464E44236B03EB860323F007068E
S2144021703B7884F834303B78002B40F0848000274E
S21440218084F83D70E562A564E76404F104094846B6
S214402190DFF884B1D84704F11800D8472461C5F168
S2144021A00503A3616462276584F85470424601992A
S2144021B03046464B98472060BAF1000F01D0CAF827
S2144021C00040434B9847434A136801331360424BE1
S2144021D01B68002B66D1404B1C601368012B21D135
S2144021E03E4F38463E4EB04707F11400B04707F121
S2144021F02800B04707F13C00B04707F15000B04711
S214402200DFF818814046B047364F3846B047364824
S214402210B0473648B0473648B047364BC3F80080DC
S214402220354B1F60354A1368013313602364E06AF8
S214402230334A1168012383400B43136000EB800050
S2144022404946264B03EB80002E4B98472E4B98472B
S2144022502E4B1B68002B31D01F4B1B68DB6A9D4200
S2144022602ED94FF080522A4B1A60BFF34F8FBFF3E0
S2144022706F8F012003B0BDE8F08F3046254B98475E
S2144022804FF0FF30F6E73B4604F134020937597801
S21440229002F8011F13F8011F00293FF470AFBB423C
S2144022A0F5D16CE7194B1B68002BBBD10A4B1B685A
S2144022B0DB6A9D42B6D3084B1C60B3E70120D9E7E2
S2144022C00120D7E7B11740001178400009154000BB
S2144022D05515400054DE4020E4DD4020F0DD40202F
S2144022E00914400080DE40209CDE4020C8DE4020AE
S2144022F0B4DE4020E8DD4020ECDD402060DE4020BB
S21440230068DE402025144000A1154000B0DE402085
S21440231004ED00E0211840001F1440006CDE402011
S21440232010B584B000230393029301930093822256
S21440233016491748174CA04701280BD020BB4FF032
S214402340800372B683F31188BFF36F8FBFF34F8F4E
S21440235062B6FEE7104B98470128EFD14FF0800356
S21440236072B683F31188BFF36F8FBFF34F8F62B699
S2144023704FF0FF32094B1A600122094B1A600022C7
S214402380084B1A60084B984704B010BD2CE140003B
S214402390C5264000ED204000052D400094DE40203C
S2144023A0B0DE4020DCDE402089164000024A13683A
S2144023B001331360704700BF5CDE4020014B186855
S2144023C0704700BFDCDE40202DE9F047424B1B68DB
S2144023D0002B78D1414B1A6801321A601E68D6B974
S2144023E03F4B1B681B6853B14FF0800372B683F3B4
S2144023F01188BFF36F8FBFF34F8F62B6FEE7384A40
S2144024001168384B186810601960374A13680133F2
S2144024101360364B9847364B1B689E4218D20024B2
S214402420344B1B68DB6A03EB8303334A52F8233092
S214402430022B28BF0124314B1B680BB9304B984701
S214402440304B1B68002B0CBF20460120BDE8F087B0
S2144024500024DFF88C90DFF8B8802B4F1FE04FF059
S214402460FF32234B1A60DBE7214A1360D8E705F1B9
S2144024701800C047E86A3A680123834013433B602C
S21440248000EB800051461C4B03EB80001F4B9847E7
S214402490184B1B68EA6ADB6A9A4228BF0124D9F8BF
S2144024A000301B68002BDAD0D9F80030DB68DD68D6
S2144024B06B689E42D8D305F1040A5046C047AB6AC3
S2144024C0002BD4D1D6E70D4A1368013313600C4B6A
S2144024D098470024B4E700BF5CDE4020DCDE4020A6
S2144024E0E8DD4020ECDD402098DE402069204000BA
S2144024F094DE4020E4DD4020F0DD402058DE4020E1
S21440250059704000E0DE402068DE40202514400040
S214402510711440002DE9F843384B1B6853B94FF00F
S214402520800372B683F31188BFF36F8FBFF34F8F6C
S21440253062B6FEE7324B9847304B1A68013A1A604B
S2144025401B68002B55D12F4B1B68002B32D1002423
S2144025502D4B98472046BDE8F883FB68DC6804F1BD
S2144025601800B04704F104084046B047E06A2A68BD
S2144025700123834013432B6000EB8000414609EB68
S2144025808000224B9847224B1B68E26ADB6A9A42DD
S2144025900CD23B68002BE0D11E4B1B68DBB11D4BB9
S2144025A01B68C3B11C4E1D4D1A4C0EE001221B4B3E
S2144025B01A60EEE71A4F1B4E1B4DDFF87490E8E7A3
S2144025C02368013B236023682BB1B0470028F7D02F
S2144025D001232B60F4E7114B1B68012B0BD14FF006
S2144025E08052124B1A60BFF34F8FBFF36F8F012498
S2144025F0AEE70024ACE70024AAE700BF5CDE40203C
S2144026005515400054DE4020A115400025144000DA
S214402610E4DD402058DE4020C9234000E0DE402074
S2144026209CDE40207114400068DE402004ED00E04F
S214402630F0DD402010B5002829D00446184B1B6812
S21440264053B14FF0800372B683F31188BFF36F8F98
S214402650BFF34F8F62B6FEE7124B9847124B1B688C
S2144026601C44124B18680430114B984748B90F4B1E
S2144026701A6810490B68D06A0122824023EA020396
S2144026800B6020460C4B98470C4B984738B94FF098
S21440269080520B4B1A60BFF34F8FBFF36F8F10BD46
S2144026A05CDE4020AD234000DCDE4020E4DD402000
S2144026B07114400068DE40209520400015254000FB
S2144026C004ED00E080B5DFF88880194EDFF884908E
S2144026D02AE0184B1B68012B1ED82B68002BF8D01D
S2144026E0C0473468B847002CF7D0134B9847F36878
S2144026F0DC68201D114B9847114A1368013B136054
S2144027002B68013B2B600F4B9847206BDFF848A0A7
S214402710D0472046D047E0E74FF08053C9F8003016
S214402720BFF34F8FBFF36F8F074D084FD5E700BFFE
S214402730C8DE4020F0DD40205515400071144000B2
S21440274054DE4020A115400064DE402015254000A0
S214402750AD23400004ED00E0211840002D4B1B68DF
S214402760002B2CD110B500222B4B1A602B4B1B682C
S2144027701B6B1A68B2F1A53F03D15A68B2F1A53F68
S21440278021D0264B186819683431254B9847254B7D
S2144027901B68B3FA83F3DBB2C3F11F0303EB830179
S2144027A0214A52F82120BAB94FF0800372B683F31B
S2144027B01188BFF36F8FBFF34F8F62B6FEE70122DB
S2144027C0154B1A6070479A68B2F1A53FD9D1DB68BD
S2144027D0B3F1A53FD5D1DAE7134A9900C81802EB02
S2144027E08000446864684460194402460832944253
S2144027F009D003EB83030C4A02EB83035B68DA6879
S214402800064B1A6010BD6068074A02EB81025060B2
S214402810EFE700BF5CDE4020E0DE4020E4DD402005
S2144028204170400068DE4020F0DD402038B5E0B121
S2144028300C46174D29681831164B984728680430BF
S214402840154B984740B92A6814490B68D06A01224C
S214402850824023EA02030B60B4F1FF3F10D0104BD6
S214402860186820440F4B984738BD4FF0800372B627
S21440287083F31188BFF36F8FBFF34F8F62B6FEE7C7
S214402880034B196804310848084B984738BD00BFC9
S214402890E4DD40203D1440007114400068DE4020D6
S2144028A0DCDE402095204000B4DE40202514400069
S2144028B0E8B170B515460C46164E31681831164BC1
S2144028C0984730680430154B984740B932681449E9
S2144028D00B68D06A0122824023EA02030B60012D76
S2144028E010D0104B186820440F4B984770BD4FF0DF
S2144028F0800372B683F31188BFF36F8FBFF34F8F99
S21440290062B6FEE7034B196804310848024B984705
S21440291070BD00BFE4DD4020251440007114400027
S21440292068DE4020DCDE402095204000B4DE4020BB
S21440293038B5C368DC6824B304F1180528461A4B3A
S21440294098471A4B1B683BBB251D2846164B984795
S214402950E06A174A1168012383400B43136000EB7B
S21440296080002946134B03EB8000134B9847134BCC
S2144029701B68E26ADB6A9A4213D90120104B186042
S21440298038BD4FF0800372B683F31188BFF36F8F64
S214402990BFF34F8F62B6FEE729460A48064B984774
S2144029A0E5E7002038BD00BF711440005CDE4020E3
S2144029B068DE4020F0DD402025144000E4DD402065
S2144029C0E0DE40209CDE402030B1094A12680260BA
S2144029D0084A1268426070474FF0800372B683F32D
S2144029E01188BFF36F8FBFF34F8F62B6FEE700BF0D
S2144029F098DE4020DCDE402038B5C0B1044609B33E
S214402A000D461D4B98471D4B1A682B68B3F1FF3F88
S214402A102ED01B4909682068884202D061688A42E5
S214402A2028D26168501A834217D801241CE04FF020
S214402A30800372B683F31188BFF36F8FBFF34F8F57
S214402A4062B6FEE74FF0800372B683F31188BFF399
S214402A506F8FBFF34F8F62B6FEE79B1A0B442B6017
S214402A602046084B98470024074B9847204638BDD9
S214402A700024F9E70124F7E755154000DCDE402046
S214402A8098DE4020C9294000A11540000122014B94
S214402A901A607047E0DE4020054B1B6833B1054B9B
S214402AA01B68002B0CBF0220002070470120704797
S214402AB0B0DE40205CDE4020002844D038B50446D6
S214402AC0C26A21490968C96A8A4214D281690029C2
S214402AD005DB1D490968C96AC1F10501816102EB40
S214402AE082021A4901EB82026169914204D0164A79
S214402AF01268D26AE26238BD251D2846144B9847B4
S214402B0070B9E36A03EB8301104A52F821203AB9C0
S214402B1010480268012101FA03F322EA0303036026
S214402B20094B1B68D86AE0620A4A11680123834051
S214402B300B43136000EB80002946044B03EB8000F8
S214402B40054B984738BD7047E4DD4020F0DD402017
S214402B507114400068DE40202514400000284DD007
S214402B6038B50446274A126890420AD04FF0800390
S214402B7072B683F31188BFF36F8FBFF34F8F62B681
S214402B80FEE7C26C52B94FF0800372B683F31188E9
S214402B90BFF36F8FBFF34F8F62B6FEE7013AC26452
S214402BA0C06AA16C88422BD052BB251D2846164BC6
S214402BB0984768B9E16A01EB8102144B53F822301A
S214402BC033B91348036801228A4023EA02030360AC
S214402BD0A06CE062C0F10503A3610D4A11680124B0
S214402BE004FA00F30B43136000EB80002946074BC2
S214402BF003EB8000074B9847204638BD00207047BF
S214402C00002038BDE4DD402071144000F0DD402057
S214402C1068DE402025144000054B1B6823B1044B5A
S214402C201A68D36C0133D364014B1868704700BFF1
S214402C30E4DD402008B54160006191420CD8D21ACC
S214402C4083699A4201D3012008BD011D094B1868CB
S214402C50094B9847002008BD9A4203D2994201D3B7
S214402C60012008BD011D054B1868034B98470020FE
S214402C7008BD00BFE8DE40203D144000E4DE4020B2
S214402C8070B5154B9847154B1B6813B1144B9847B6
S214402C9070BD144D2846144EB047144C2046B047DD
S214402CA0134B1D60134B1C60002210210520124B55
S214402CB098470A4B186018B11049114B9847E5E7FA
S214402CC04FF0800372B683F31188BFF36F8FBFF364
S214402CD04F8F62B6FEE700BF5515400018DF402014
S214402CE0A1154000ECDE40200914400000DF4020E3
S214402CF0E4DE4020E8DE4020AD1A400034E14000EB
S214402D00DD1F400010B584B00F4B98470F4B1B6833
S214402D1073B10023039302930193042200924FF46D
S214402D2082720B490B480C4CA04708B104B010BD4A
S214402D304FF0800372B683F31188BFF36F8FBFF3F3
S214402D404F8F62B6FEE700BF812C400018DF402060
S214402D503CE14000852E4000ED204000D8B130B523
S214402D6085B015460446154A106820B31A460091A9
S214402D7001950294052919DC114B984702284FF01B
S214402D8000030CBF089A1A4669460C4800680D4C6A
S214402D90A04705B030BD4FF0800372B683F311886C
S214402DA0BFF36F8FBFF34F8F62B6FEE700236946CF
S214402DB0054CA047EDE70020EBE700BF18DF4020BA
S214402DC0992A4000291B40000D1D40002DE9F04780
S214402DD082B08046244B98470746244B1B6898424F
S214402DE01BD30023C8F80030204B1F60384602B083
S214402DF0BDE8F087002100910B46524620461C4C09
S214402E00A04760B94FF0800372B683F31188BFF3D2
S214402E106F8FBFF34F8F62B6FEE7164D164E2B6888
S214402E201A68C2B1DB68D3F800A0DC6804F1040974
S214402E304846B047636A20469847E369012BEED17F
S214402E40A36953449A45D5D26360246149462868AD
S214402E500A4B9847E3E70A4A106806490860136039
S214402E600123C8F80030BFE7BD23400014DF4020F0
S214402E705D2D4000E4DE4020711440003D144000CB
S214402E80E8DE40202DE9F04788B0754E754FDFF8F4
S214402E90FC91DFF8FC8133681A68002A00F0CE8087
S214402EA0DB681C68B84704A86F4B98470546049BE8
S214402EB0002B44D1A04212D20022611B6B4B1868F3
S214402EC06B4B98476B4B984700283AD14FF080534E
S214402ED0C9F80030BFF34F8FBFF36F8F31E0654BBB
S214402EE098473368DB68D3F80CA00AF10400C04763
S214402EF0DAF81C30012B04D0DAF8243050469847D4
S214402F001FE0DAF8181023462A46214450465A4D08
S214402F10A8470128F0D1002100910B462246504692
S214402F20564CA0470028E7D14FF0800372B683F393
S214402F301188BFF36F8FBFF34F8F62B6FEE74D4BDE
S214402F4098474A4D4E4C06E007990698059B984789
S214402F50049B002B09DA00231A4604A92868A047D8
S214402F60002898D0049B002BEEDBDDF818A0DAF89A
S214402F70143013B10AF10400C04703A83A4B9847EF
S214402F80049B092BE7D801A252F823F0B52F400046
S214402F90B52F4000B52F4000572F40000930400065
S214402FA035304000B52F4000B52F4000572F400029
S214402FB009304000059CDAF81810234602462144A2
S214402FC050462D4CA0470128BCD1DAF82430504654
S214402FD09847DAF81C30012BB4D1DAF818200021D3
S214402FE000910B46059802445046244CA0470028C2
S214402FF0A8D14FF0800372B683F31188BFF36F8F6A
S214403000BFF34F8F62B6FEE70599CAF8181031B184
S2144030100346024601445046174CA04792E74FF0FD
S214403020800372B683F31188BFF36F8FBFF34F8F61
S21440303062B6FEE75046134B984783E7B84704A866
S214403040094B98470546049B002B7FF478AF0E4B00
S2144030501B681A68B2FA82F2520900242DE700BFB4
S214403060E4DE4020AD234000CD2D400018DF402058
S2144030701120400015254000352C40005D2D4000B5
S2144030800D1E400021184000E8DE402004ED00E020
S21440309071144000102808D1B1F1805F05D108B501
S2144030A0024B1B6803B1984708BD70471CDF4020A1
S2144030B050B170B5441E054E054D3046A847013CFC
S2144030C0B4F1FF3FF9D170BD704700BF351603001D
S2144030D0010040202DE9F041094F4FF40038C7F871
S2144030E03480084D08266E636420074CA047C7F816
S2144030F030806420A0472E636420A047BDE8F0815E
S21440310000120E4000100E40B130400010B50022B4
S214403110144B1A600A20144CA0470B20A0470C20E2
S214403120A0471020A0471120A047104B08221A6144
S214403130C3F8A0201A630E4A4FF400311161C2F85A
S214403140A010116304221A61C3F8A0201A63094B29
S2144031501B6813F0010F01D0064B1B68064B9847BF
S214403160002010BD1CDF40208163400000100E4050
S21440317000120E4010E000E0D530400030B583B07D
S214403180144B18601020144B98474FF020517C2069
S214403190124B9847124C01224FF080512046114B5B
S2144031A09847114B009351234FF0805210212046F0
S2144031B00E4DA8474FF0805120460D4B98474FF490
S2144031C080320C4B1A600022102120460A4B98474A
S2144031D003B030BD1CDF402081634000895F400063
S2144031E000140E40795D4000953040000961400073
S2144031F03F5F400000E100E0DD61400008B528B9CF
S2144032004FF080510448054B984708BD4FF0805119
S2144032100148034B984708BD00140E40435F4000EA
S2144032203F5F4000F8B5394C4FF480112166C4F832
S214403230901061656162C4F88010236F0B4323676A
S214403240636F23F4801363674FF400122266C4F85A
S214403250902062656262C4F88020236F1343236720
S214403260636F23F4001363674FF480032366C4F848
S214403270903063656362C4F88030206F18432067DF
S214403280606F20F4800060676160626063604FF04A
S214403290007666602660266126631D4D28461D4BD7
S2144032A0984702232B6080232B606B6843F0010312
S2144032B06B606B6843F010036B6001212846164B29
S2144032C09847002201212846144B98470122114670
S2144032D02846134B9847002201212846114B984711
S2144032E011491248124B9847C2B201212846114B49
S2144032F0984700231A46012128460F4FB847012316
S2144033002B6026630D4B98470020F8BD00140E40F6
S21440331000800040D5634000016440007B6440006C
S21440332099644000B764400000A3E111006CDC02E1
S214403330CB644000E164400009654000D530400061
S2144033402DE9F04F83B0032844D10E684D680C89B0
S21440335000238DF80430ADF8063086B1002D36D106
S2144033604FF00108994601AD4FF00072204B5A636A
S2144033702CB3204FDFF894B0DFF894A006E04FF06F
S21440338000084FF0010901AEEEE7C4B100231A462B
S21440339031783846D8470DF105020DF1060138461A
S2144033A0D047BDF806302B70013CA4B2B8F1000FF0
S2144033B000D10135B9F1000FE7D10136E5E74FF00E
S2144033C000720B4B1A63002003B0BDE8F08F6FF01D
S2144033D00500F9E740F21F1207490848084CA04785
S2144033E00848A0470848A0474FF0FF30ECE700BF2A
S2144033F000140E400080004044E1400054E140008C
S214403400B576400068E1400080E1400047644000F7
S2144034101764400002220E4B1A6003F5592303F549
S21440342080634FF400125A61C3F8A0204FF4801214
S2144034305A61C3F8A0204FF480025A61C3F8A02016
S2144034404FF000725A61C3F8A0200020704700BFBA
S214403450008000403AB10139821811F8013F00F867
S214403460013B9042F9D1704722B1821800F8011B07
S2144034709042FBD17047037843B1002301339BB29F
S21440348010F8012F002AF9D1184670470023FBE7B1
S214403490024A13780133DBB21370704723DF4020B3
S2144034A07047000000B583B001200B4B984701A938
S2144034B041F27000094B9847034618B1184603B0CE
S2144034C05DF804FB019941F00201019141F2700060
S2144034D0034B98470346F1E7FD31400091474000D3
S2144034E09D47400008B5124B1B784BB9114B1B78D3
S2144034F0DBB2032B0CD00F4B1B78DBB2042B07D070
S2144035000B4A13780133DBB213700023184608BD0C
S214403510094B984703460028F8D145F2786141F2B6
S2144035207400064B984703460028E9D0EEE700BFF4
S21440353021DF402020DF4020014340009D474000DF
S2144035401E4B1B7823B11D4A1378013BDBB2137028
S2144035501A4B1B78002B2ED1194B1B78DBB2032B52
S21440356006D0174B1B78DBB2042B01D0002323E098
S21440357000B583B00023019344F2213141F2740038
S214403580104B9847034618B1184603B05DF804FB45
S21440359001A901200C4B984703460028F4D1019915
S2144035A011F0020FF0D021F0020101910120054BED
S2144035B098470346E8E700231846704721DF402037
S2144035C020DF40209D474000914740002DE9F04FC6
S2144035D087B00746884692469946109CBDF8446098
S2144035E0BDF8485001F07F038DF815308DF8140073
S2144035F00823ADF81630002C00F09F80BDF816303A
S21440360016FA83F32B449BB2ADF816305C4B9847C2
S2144036108346002840F0A28000230393ADF806308E
S2144036200293029B1F430297029B43EA082302939E
S214403630BDF81620029B43EA02430293029941F2E8
S2144036408C00504B98478346002840F091800023DA
S2144036500293029B43F002030293029941F27800E0
S214403660484B98478346002840F0828000230393C7
S214403670ADF80630BDF806309BB2B3F57A7F16D269
S21440368041F27808404F02A94046B84778B9029BB5
S21440369013F0020F59D0BDF8063001339BB2ADF897
S2144036A00630BDF806309BB2B3F57A7FEBD3039B6A
S2144036B0002B61D0039B0493BDF816309BB2ADF847
S2144036C016300498082205A9304B984783460028B0
S2144036D04ED1049B08330493BAF1000F0AD00498E5
S2144036E04A465146294B98478346002840D1049B7A
S2144036F04B4404937CB1049BA5EB09051D440495FB
S214403700049832462146214B9847834600282FD1BD
S214403710049B1E440496039B9B000293029B43F02B
S21440372002030293029941F26C00164B9847834677
S214403730F0B9174B984783461AE0BDF8163019FA89
S21440374083F39BB2ADF8163060E703A911480E4BE1
S21440375098470028ABD000230393A8E740F29F1277
S2144037600D490E480E4CA0470E48A0470E48A047AD
S214403770584607B0BDE8F08F6FF0020BF8E700BF81
S214403780E53440009D4740009147400005484000D2
S214403790413540000004150084E1400054E14000FB
S2144037A0B5764000D8E3400080E140002DE9F04384
S2144037B087B0DFF8F892A24FA24EDFF8F482D5E049
S2144037C0042204A90598A04B9847BDF812309BB236
S2144037D0ADF812300446002830D1BDF812309BB206
S2144037E09D4205D0BDF812309BB2EB1A042B33DC59
S2144037F09DF81030DBB2012B47D09DF81030DBB27D
S214403800022B5FD09DF81030DBB2042B68D09DF8B9
S2144038101030DBB2062B71D09DF81030DBB2072B90
S2144038207AD040F2022241463046884CA04788482B
S214403830A0478848A0476FF0050496E04FF4EB7227
S21440384041463046814DA8478348A8478148A84707
S2144038500120824B984788E040F2DF1241463046CE
S2144038607A4CA047BDF812209DF810309DF81110F4
S214403870009192B229467A48A0477648A047012050
S214403880764B98476FF005046FE0764B1B6843B164
S2144038909DF81100BDF812100839059A083289B211
S2144038A09847714B1B78002B5CD140F20922414669
S2144038B03046664CA0476D48A0476648A0476C4BCC
S2144038C098474FE06B4B1B68002BEAD09DF81100E1
S2144038D0BDF812100839059A083289B29847E0E7D1
S2144038E0654B1B68002BDCD09DF81100BDF812100C
S2144038F00839059A083289B29847D2E75F4B1B6869
S214403900002BCED09DF81100BDF812100839059A4C
S214403910083289B29847C4E7594B1B68002BC0D081
S2144039209DF81100BDF812100839059A083289B280
S2144039309847B6E740F2112241463046434CA047EE
S2144039405048A0474348A0476FF001042FE04FF48B
S2144039500672414630463D4CA04703994A48A04728
S2144039603C48A047494B9847044604BB99F800306A
S214403970002B00F09F8099F80030013BDBB289F8BD
S21440398000301FE040F21E22414630462F4DA847E9
S2144039903F48A8472F48A84709E04FF409724146D8
S2144039A030462A4DA8473B48A8472A48A84740F2F1
S2144039B0432239493046254DA84721463748A8472F
S2144039C02448A847B84704460028E6D103A941F250
S2144039D07000334B984704460028D3D1039B13F01E
S2144039E0010FB4D01D4B9847039921F00101039174
S2144039F041F270002B4B984704460028D7D100224E
S214403A00194B1A70039DC5F38B05002D92D006A95D
S214403A1041F8042D41F28400214B98470446002883
S214403A203FF4CEAE4FF4E77241463046074DA847C6
S214403A301D48A8470748A8470120084B984794E7E1
S214403A40E534400054E14000A9474000B5764000C8
S214403A5044E2400080E14000ECE14000FD3140009F
S214403A6004E2400038DF402022DF40205CE2400095
S214403A70A53440002CDF402030DF402024DF4020AB
S214403A8034DF402080E2400094E240004135400070
S214403A90B0E24000D4E2400098E14000F4E240004A
S214403AA0914740009D474000C4E1400023DF40204E
S214403AB090E14000002007B0BDE8F0832DE9F043D8
S214403AC083B01C46002A18BF002903D005460F467F
S214403AD01646B8B94CB10122324B1A70324B984751
S214403AE00346184603B0BDE8F08340F269222F49EA
S214403AF02F48304CA0473048A0473048A0476FF08A
S214403B000B03EEE7694641F270002D4B984703469B
S214403B100028E6D1DDF8008001A941F28400284B58
S214403B20984703460028DCD1C8F38B0846451CD886
S214403B30019B9D4228D305EB06094344994523D86B
S214403B403246394628461F4B984703460028C8D178
S214403B50019A9044C84501D0002CC2D00122114B96
S214403B601A70114B98470346BBE740F27A220F493A
S214403B700F48104CA047424631461348A0470F48CE
S214403B80A0476FF00B03ACE74FF420720749084894
S214403B90084CA0470D48A0470848A0476FF00B03C5
S214403BA09FE700BF22DF4020A5344000A8E1400048
S214403BB054E14000B576400024E3400080E14000F8
S214403BC091474000A947400044E3400088E3400056
S214403BD038B5431E062B1DD8DFE803F00804100C4A
S214403BE01C141800134B1960002038BD124B196086
S214403BF0002038BD114B1960002038BD104B1960AD
S214403C00002038BD0F4B1960002038BD0E4B1960A0
S214403C10002038BD044640F2B9220C490C480D4DF0
S214403C20A84721460C48A8470C48A8476FF00B0009
S214403C3038BD00BF2CDF402038DF402030DF40203A
S214403C4028DF402024DF402034DF4020B4E140001D
S214403C5054E14000B5764000CCE3400080E14000AF
S214403C6010B50024094B1C60094B1C60094B1C70A6
S214403C70094B1C70094B1C7009480A4B98470A4967
S214403C8003200A4B9847204610BD00BF38DF40202F
S214403C902CDF402021DF402020DF402023DF402053
S214403CA0913440007D314000A1344000D13B40007B
S214403CB030B59FB015462C282ED004461B283BD046
S214403CC0062849D00E2825D0322855D02F2863D034
S214403CD0342876D0112800F09380132800F0A8806E
S214403CE0042800F0B780652800F0C680092800F058
S214403CF0D5802A2800F0E480202800F0F3804FF496
S214403D00957286498648874DA84721468648A847E3
S214403D108648A8471FB030BD0023042203A9284682
S214403D20834CA0470028F5D1824B1B68002BF1D06E
S214403D3003A92C209847EDE70023082203A928462C
S214403D407B4CA0470028E5D17A4B1B68002BE1D07E
S214403D5003A91B209847DDE70123302203A9284604
S214403D60734CA0470028D5D1724B1B68002BD1D08E
S214403D7003A906209847CDE70023102203A928462A
S214403D806B4CA0470028C5D16A4B1B68002BC1D09E
S214403D9003A932209847BDE76422002103A8664B5A
S214403DA098470023642203A92846614CA047002870
S214403DB0B0D1604B1B68002BACD003A92F2098478E
S214403DC0A8E70023042203A92846594CA047002808
S214403DD0A0D15A48534CA0470399CBB20093C1F3A5
S214403DE00723C1F30742090E5548A0474F48A0474E
S214403DF0504B1B68002B8DD000213420984789E714
S214403E000023504A1370042203A92846484CA04772
S214403E1000287FF47FAF9DF80C204B4B1A70454B23
S214403E201B68002B3FF476AF03A91120984771E733
S214403E3000232C2203A928463D4CA04700287FF4A7
S214403E4069AF3C4B1B68002B3FF464AF03A91320BB
S214403E5098475FE7002304221CA92846344CA04715
S214403E6000287FF457AF334B1B68002B3FF452AF0C
S214403E701CA9042098474DE7002304221CA9284685
S214403E802B4CA04700287FF445AF2A4B1B68002BDD
S214403E903FF440AF1CA9652098473BE701236422C6
S214403EA003A92846224CA04700287FF433AF214B75
S214403EB01B68002B3FF42EAF03A90920984729E73B
S214403EC00123042203A92846194CA04700287FF462
S214403ED021AF184B1B68002B3FF41CAF03A92A20C8
S214403EE0984717E70023082203A92846104CA04706
S214403EF000287FF40FAF0123BDF81020039905F189
S214403F000800A04700287FF405AF0A4B1B68002B2B
S214403F103FF400AF03A920209847FBE6F8E34000B3
S214403F2054E14000B576400054E4400080E1400053
S214403F30BD3A40003CDF40206934400028E4400061
S214403F4034E4400041DF402040DF4020F0B58BB0F5
S214403F5001238DF80730002850D00268294B1A609C
S214403F600022294B1A700DF10700284B984704464B
S214403F7010B120460BB0F0BD254B984704460028AC
S214403F8038D124490120244B984702A8234B984710
S214403F900446234F3846234DA8479DF80E309DF8DB
S214403FA00D209DF80C102048A847204E3046A847C4
S214403FB03846A8479DF811309DF810209DF80F1000
S214403FC01B48A8473046A8473846A8470023032240
S214403FD013211848A8473046A84714F10D0FC8D1FA
S214403FE040F2D51214491548A8471548A847304608
S214403FF0A847BEE70020134B9847BAE76FF00B047C
S214404000B7E700BF3CDF402041DF40201149400079
S214404010613C4000B13C4000D13B4000614840001C
S21440402028E44000B576400014E5400080E14000BA
S21440403030E540004CE5400004E4400054E14000D8
S21440404068E54000DD49400008B5014B984708BD8B
S214404050AD3740002DE9F041A0B080460D461446ED
S2144040601E46BDF89870012A03D0002B37D0022A8E
S21440407042D06B1EDBB21F2B75D8FF2F01D00D2F01
S2144040807ED82A4641460DF15A00774B984720ABDA
S2144040901D44002305F8263CADF858709DF89C302A
S2144040A0003318BF01238DF87B308DF85540032C24
S2144040B073D0022C00F0AA80042C00F0C180012CA2
S2144040C040F0C48000230293019300936C2305AA1A
S2144040D028210120654CA04720B0BDE8F08140F281
S2144040E0032263496348644CA0476448A047644839
S2144040F0A0476FF00B00EFE71846624B9847402802
S214404100B7D13378A3F13A02D2B2062A1ED9A3F128
S2144041103002D2B2362A19D8473BDBB2192B15D912
S214404120314606F13F0011F8013FA3F13A02D2B200
S214404130062A0BD9A3F13002D2B2362A06D8473B1C
S214404140DBB2192B02D98842EDD192E740F20F221A
S21440415047494848484CA0474B48A0474848A0478E
S2144041606FF00B00B8E740F2192241494148424CF3
S214404170A0474648A0474248A0476FF00B00ABE731
S21440418040F222223A493B483B4CA0474048A04791
S2144041903B48A0476FF00B009EE73378013BDBB20D
S2144041A08DF81430032B13D87278531E8DF81530C3
S2144041B002F0EF030B2B1AD1B11C0DF116002A4B5F
S2144041C09847737820AA1344002203F86A2C79E7AC
S2144041D040F2392226492748274CA0479DF814101C
S2144041E02C48A0472648A0476FF00B0074E74FF4D2
S2144041F010721F491F48204CA0479DF815102648AE
S214404200A0471F48A0476FF00B0065E730461D4BA0
S2144042109847431E9BB23F2B05D8421C314605A803
S214404220114B98474EE740F24F2211491148124C25
S214404230A0471A48A0471248A0476FF00B004BE72C
S2144042403E22314605A8084B98473BE740F25F229E
S21440425007490848084CA0471148A0470848A047C7
S2144042606FF00B0038E700BF55344000CD354000B6
S21440427014E4400054E14000B576400068E4400055
S21440428080E14000773440007CE440008CE440000D
S214404290A0E44000ACE44000C8E44000E4E4400051
S2144042A000E5400010B582B000240194BDF81040EF
S2144042B00094024CA04702B010BD00BF55404000DD
S2144042C000207047F0B583B004464FF4A5550A4E1B
S2144042D00A4F21462846B04754B102A9002341F868
S2144042E0043D2846B8470028F3D1019B9C42F0D1B4
S2144042F0002003B0F0BD00BF9D47400091474000FE
S2144043002DE9F04F83B001203C4B984701A901208E
S2144043103B4B9847824638B900244FF00108DFF8F7
S2144043200891364D374F20E0722237493748384C8F
S214404330A0473848A0473848A04709E09622324967
S2144043403248334CA0473548A0473348A047B2468A
S214404350504603B0BDE8F08F019941F00201404657
S214404360C847009B13F0040FF2D1019941F00201B7
S2144043704046C8474046A8476946294B1868204BE0
S214404380984708B9009BBBB9254E0E23336040467C
S214404390A847694630681A4B984708B9009B5BB9EE
S2144043A01F4E132333604046A84769463068144B77
S2144043B0984706460028C1D1194E009B13F0040FBB
S2144043C0C6D10134A7FB04235B0803EB43039C429E
S2144043D0C2D10220A84769463068094B9847009BDF
S2144043E013F0040FE9D1AA2207490848DFF820B0A5
S2144043F0D8470C48D8470848D847DEE7B130400091
S21440440091474000ABAAAAAA84E5400054E1400088
S214404410B5764000F4E5400080E1400014E64000F8
S2144044201400402034E640009D47400000B583B06D
S21440443001A941F20840154B9847E8B9019941F463
S2144044408071019141F20840114B9847B8B901A9D3
S2144044504FF4D0500D4B9847A0B9019941F48031A4
S21440446001914FF4D0500A4B9847002818BF6FF080
S214404470050003B05DF804FB6FF00500F9E76FF048
S2144044800500F6E76FF00500F3E700BF91474000F0
S2144044909D47400010B582B0254B1C6824B1244B84
S2144044A01C68204602B010BD19464FF48050214B80
S2144044B0984718B100221E4B1A60F2E701A941F254
S2144044C0F4301C4B984718B10022194B1A60E8E7A5
S2144044D0174B1B68184A93420DD0184A934211D086
S2144044E0174A934218D0124A136823F4702343F4B1
S2144044F0A0231360D3E7019B012BF4D001320C4B71
S2144045001A60F0E7019B032BEDD0042B0CBF013261
S2144045100C4A074B1A60E6E705494FF46C10054B0A
S21440452098470028DFD00022014B1A60B9E700BF49
S21440453044DF402091474000A0021000B002100027
S214404540F0001000B20210002DE9F041074641F29B
S2144045501405284C284E2846A047002802DB012098
S214404560B047F8E72548234B984710F0010F10D185
S214404570DFF884801F4E224D0120C0474FF00C10BC
S214404580B04704462A4601461E481F4B9847AC4251
S214404590F2D1022F19D0032F22D0042F14BF0024AB
S2144045A080241A4B9847C0F30B00B0F5687F0CBFC9
S2144045B044F002002046164B984716494FF00C1020
S2144045C0154B98470020BDE8F08114491448124C1A
S2144045D0A0474FF4801141F28C00A0470024E0E74A
S2144045E00E490F480C4CA047002141F28C00A047D2
S2144045F00024D6E785474000B1304000BC070200A3
S2144046009ED0AD1058E64000B57640009544400038
S214404610C5424000612F52EF9D4740007DD51C3C6F
S214404620AC070200F0B583B041F28C030193184BFF
S21440463000930238C0B2012811D94FF0FF34002051
S2144046400227144E144D009B984212D03846B0476D
S2144046500198A847013CF6D16FF004000EE00F4BDE
S2144046600193A3F12253A3F51113A3F2E953009348
S214404670E3E7009A064B9A4202D0002003B0F0BD12
S214404680002141F28C00064B98470020F6E700BF19
S21440469036265302B130400085474000AC07020042
S2144046A09D474000F0B583B002A9002341F8043D81
S2144046B04FF4A050244B984720BB019921F48061C9
S2144046C001914FF4A050214B9847054628BB0A2439
S2144046D01D4E1E4F01A94FF4A050B047054638BBAB
S2144046E0019911F4806F0AD021F4806101914FF452
S2144046F0A050B8470546631E13F0FF04EAD128468B
S21440470003B0F0BD40F2312211491248124CA04786
S2144047101248A0471248A047CFE740F237220C493C
S2144047200C480D4CA0470F48A0470D48A047E6E769
S21440473040F23E2206490748074CA0470A48A04791
S2144047400748A047DBE700BF914740009D47400031
S21440475094E5400054E14000B5764000A0E54000B6
S21440476080E14000BCE54000D8E5400008B5014B7C
S214404770984708BD2532400008B5014B984708BD0C
S2144047801534400008B5014B984708BDD94F400046
S21440479008B5014B984708BDF14F400008B5014B9E
S2144047A0984708BD095040002DE9F047074689461E
S2144047B01546124BB3F80080A8F108081FFA88F88F
S2144047C0424519D944460026DFF834A0424609EB54
S2144047D006013846D047034658B92D1B2644274481
S2144047E0A542F3D8AAB209EB06013846044B9847CF
S2144047F003461846BDE8F0870026F3E71000402041
S214404800355140002DE9F047074689461546124B7C
S214404810B3F80080A8F108081FFA88F8424519D96D
S21440482044460026DFF834A0424609EB06013846E7
S214404830D047034658B92D1B26442744A542F3D8F3
S214404840AAB209EB06013846044B98470346184679
S214404850BDE8F0870026F3E710004020FD514000F9
S21440486030B583B0044602A9002341F8043D2448ED
S214404870244B98470546019A234B9A4239D0019BD0
S2144048801A0C91B2080AE071C1F30311217202F0CA
S2144048900F0262729AB2110A2171C2F30312627158
S2144048A003F00F03A371194B984720602279A37930
S2144048B003F00F0343EA022362791201D2B2134394
S2144048C0E179627A02F00F0242EA0122217A090176
S2144048D0C9B20A4341F230318A4288BF6FF00C05B4
S2144048E041F22F3293428CBF28466FF00C0003B043
S2144048F030BD01A941F24800024B98470546BEE745
S214404900AC07020091474000C3C15DD795444000C4
S21440491038B5002837D00478631EDBB2042B28BF96
S214404920012400201E4B9847054600282DD11D48DF
S2144049301D4DA8471D4B984701461D48A8471D4892
S214404940A8471D4B984720461C4B98470546B0B98C
S21440495020461B4B9847054688B9023CE4B2012CDA
S2144049600FD9184B9847054658B14FF4AE721649C2
S21440497016480D4CA0471648A0470E48A047154B72
S2144049809847284638BD0124CBE74FF492720E492B
S2144049900E48054CA0471048A0470648A047F0E7F9
S2144049A06D47400028E44000B576400095444000FE
S2144049B020E7400080E1400021504000494540004B
S2144049C0254640002D44400068E6400054E1400043
S2144049D0E4E640007947400004E7400038B5194B0C
S2144049E0984758B90020184B9847044698B9174B33
S2144049F098470446D0B9164B98470AE004464FF409
S214404A00BA7214491448154DA8471548A847154882
S214404A10A847204638BD40F27B120E490E480F4D3F
S214404A20A8471148A8470F48A847F2E740F2811226
S214404A3008490948094DA8470C48A8470948A847C7
S214404A40E7E700BFA5464000C15A4000794740000E
S214404A50CD4F400074E6400054E14000B57640003B
S214404A6084E6400080E14000A4E64000C8E64000FE
S214404A7000B585B0002301930290ADF80C1001A953
S214404A800320024B984705B05DF804FB41334000D5
S214404A902DE9F04182B0054600F13B03DBB2012B25
S214404AA027D9CF2825D00B244FF00108234F414665
S214404AB00DF10700B847064620BB9DF80730AB42CD
S214404AC02CD0631E13F0FF04F1D10B2401271B4D9D
S214404AD039460DF10700A84710BB9DF8073053B381
S214404AE0631E13F0FF04F3D10126304602B0BDE842
S214404AF0F08101210DF10700104B98470028D2D0D5
S214404B000026F2E740F227120D490E480E4CA04709
S214404B100E48A0470E48A0470026E6E70B24D5E7F8
S214404B2040F2351206490748074CA0470748A047B9
S214404B300748A047D9E70126D7E700BF714A40009B
S214404B4038E7400054E14000B576400078EB40003E
S214404B5080E140002DE9F04F85B083468A461746EF
S214404B604FF00009374D27E040F257123649374894
S214404B70374CA0473748A0473748A0470023019303
S214404B80019805B0BDE8F08F002C2EDD41460BEBBA
S214404B900900A8470446002834D11FB92F4B1B787C
S214404BA0002B3AD0C1440FFA89F9AAEB080A1FFA3B
S214404BB08AFABAF1000F41D0D046BAF5005F28BF56
S214404BC04FF400580A24012631460DF10B00A84741
S214404BD001900028C8D19DF80B301B090F2BD3D06D
S214404BE0013C24B2B4F1FF3FEED140F263121649C5
S214404BF01648174CA0479DF80B101948A047164872
S214404C00A047BDE74FF4B6720F491048104CA04776
S214404C101448A0471048A047B2E7022103A8A84777
S214404C200028BFD040F2771207490848084DA847E9
S214404C300D48A8470848A8470194A1E701230193D7
S214404C409EE700BF714A400044E7400054E1400000
S214404C50B5764000ACEB400080E1400048DF4020A5
S214404C60E0EB400010EC400044EC400000B585B05E
S214404C70019000230293ADF80C1001A90320024BCB
S214404C80984705B05DF804FB4133400070B584B0EA
S214404C909DF820408DF80400C1380E2800F2A2800E
S214404CA0DFE800F0454566192A3354547F08A0A033
S214404CB0A0A03C000B0C8DF805300B0A8DF8063092
S214404CC08DF807100521554B1B78002B00F08C8083
S214404CD00139C9B29AE0C1F3072344B98DF80530CB
S214404CE08DF8061000238DF807300521EBE763F0BA
S214404CF07F038DF80530F3E700238DF805308DF8F7
S214404D0006308DF807300521DDE700238DF80530A5
S214404D108DF806308DF807300521D4E7FF238DF84F
S214404D2005308DF806308DF807300521CBE70A0CA4
S214404D308DF805200A0A8DF806208DF807101A0A05
S214404D408DF808208DF809300721BCE70A0C8DF84D
S214404D5005200A0A8DF806208DF807101A0C8DF8E3
S214404D6008201A0A8DF809208DF80A300821AAE78B
S214404D70C1F3072384B98DF805308DF80610130E5D
S214404D808DF80730130C8DF80830130A8DF809306B
S214404D908DF80A20082196E763F07F038DF80530EA
S214404DA0EBE70B0C8DF805300B0A8DF806308DF8C6
S214404DB00710130E8DF80830130C8DF80930130ABF
S214404DC08DF80A308DF80B2009217CE74FF4847269
S214404DD013491448144CA0471448A0471448A04709
S214404DE0002019E0002017E04E1E01AB9D197F20E1
S214404DF01A46104C12F8013B83EA4003E05C9542A9
S214404E00F8D104AB1E44430006F80C3C01A80A4BFC
S214404E1098470028DAD1012004B070BD48DF402012
S214404E2030E7400054E14000B57640004CEB40008F
S214404E3080E14000ACE740006D4C400070B582B069
S214404E400446312835BF01230023C325C9250093D6
S214404E5004230A4601462846154EB04701280DD081
S214404E6040F2EB1213491448144DA8472146144803
S214404E70A8471448A847002002B070BD2846124BE9
S214404E8098470128F8D040F2F1120A490A480B4DDB
S214404E90A84721460D48A8470A48A847002400943A
S214404EA0234622462146CF20014DA8472046E3E729
S214404EB08D4C400064E7400054E14000B576400029
S214404EC0FCEC400080E14000914A400028ED400064
S214404ED02DE9F04184B004468846B0F5807F35BF62
S214404EE001260026C425CA25009604230022014632
S214404EF028462C4FB84701280ED040F245222A4972
S214404F002A482B4DA84721462A48A8472A48A8475A
S214404F10002004B0BDE8F0812846284B9847012879
S214404F2014D040F24B2220492048214DA847214624
S214404F302348A8472048A8470024009423462246F2
S214404F402146CF20174DA8472046E2E732460421A7
S214404F5003A81C4B9847012810D19DF80D209DF8BA
S214404F600E301B0443EA02239DF80C2013439DF8A1
S214404F700F2043EA0263C8F80030CAE740F25322E3
S214404F8009490A480A4CA0470F48A0470A48A04784
S214404F9000240094234622462146CF20014DA847B0
S214404FA02046B6E78D4C400084E7400054E1400080
S214404FB0B57640007CEC400080E14000914A4000DD
S214404FC0A8EC4000554B4000DCEC40000020014B74
S214404FD01870704748DF402000B583B001A9034BE6
S214404FE09847019803B05DF804FB00BFD14E4000DF
S214404FF008B5044B984701280CBF00206FF0050009
S21440500008BD00BFD14E400008B5044B9847012864
S2144050100CBF00206FF0050008BD00BF3D4E4000AD
S21440502030B583B0002302A941F8083D344A1370D6
S2144050304EF62400334B984748B3314B1B787BB928
S214405040009921F07C0141F0500100914EF6240079
S2144050502D4B98470446002839D00122284B1A7019
S21440506001A94FF48050274B984700283AD04EF677
S2144050702400264B984720F0700141F050014EF630
S2144050802400234B98470024204603B030BD01221D
S2144050901B4B1A7040F2C5221E491F481F4CA047A2
S2144050A01F48A0471F48A04769464EF62400154BA8
S2144050B0984704460028C0D14FF432721549164826
S2144050C0164DA8471848A8471648A847DCE740F2B8
S2144050D0D22210491048114DA8471448A8471148F5
S2144050E0A847D1E74FF437720A490B480B4CA04704
S2144050F00F48A0470B48A0476FF00504C4E700BF21
S21440510048DF4020D14E40003D4E4000D94F400041
S21440511009504000A0E7400054E14000B57640000A
S214405120ACE8400080E14000FCE840002CE940004C
S21440513060E94000F0B583B004460F4615460022AD
S21440514000922B460146C820224EB04701280ED07A
S2144051504FF41D7220492148214DA8472146214839
S214405160A8472148A8476FF0050003B0F0BDC82007
S2144051701E4B9847012812D040F27A22164917480B
S214405180174DA84721461A48A8471748A847002160
S21440519000910B460A46CF200E4CA047E3E700227C
S2144051A029463846134B9847012811D04FF42172B0
S2144051B009490A480A4CA0470F48A0470A48A04752
S2144051C0002100910B460A46CF20024CA047CAE772
S2144051D00020CAE78D4C400094E7400054E1400070
S2144051E0B576400088E9400080E14000914A4000A2
S2144051F0B8E94000554B4000F0E940002DE9F04347
S21440520085B0044688461546002200922B46014645
S214405210C7204D4EB04701280FD040F20F224B49D1
S2144052204B484C4DA84721464B48A8474B48A847B3
S2144052306FF0050005B0BDE8F083C720484B98479F
S214405240012812D040F2152240494148414DA84716
S21440525021464448A8474148A847002100910B46AC
S2144052600A46CF20384CA047E2E70024ADF80C4071
S2144052703D4FDFF80C911DE0B5F5005F94BF03236A
S214405280022363F00F038DF80B3001210DF10B0064
S214405290B847E8B9314608EB0400B847002835D18E
S2144052A099F80030002B3CD0344424B2AD1BADB24C
S2144052B0002D46D02E46B5F5005F28BF4FF4005669
S2144052C0002CD9D1B5F5005F94BF03230123D8E75E
S2144052D04FF4D47225491E481E4CA0472448A04788
S2144052E01E48A04740F2262218491948194CA047A4
S2144052F02048A0471948A047002400942346224649
S2144053002146CF20104DA847204693E740F2B112E1
S21440531016490F480F4CA0471748A0470F48A047CC
S214405320E0E7022103A8B8470028BDD040F2BB12F0
S2144053300E490748074CA0471048A0470748A047D3
S214405340D0E7002076E700BF8D4C400074E7400071
S21440535054E14000B576400018EA400080E1400045
S214405360914A400048EA40006D4C400054E74000F7
S21440537080EA400024EB4000B8EA4000ECEA4000F7
S21440538048DF40202DE9F84FBDF8284094B18146CB
S2144053900E469246984603012249CB5853B101EB3C
S2144053A000139B889BB22BB101EB00139B7ADBB2B8
S2144053B0012B01D0BDE8F88FF48001EB0017DFF831
S2144053C07CB006E0254601230BE0641BA4B2A8444B
S2144053D0ECB1BB88E31A1BB2002BF3DDBD88ADB23F
S2144053E0002339682A464046D84790B93B68336020
S2144053F0B580F3885B1BF3800B4B1B68002BE4D017
S214405400094B1B683246514648469847DDE7BDE89B
S214405410F88F0648064DA84721460648A84706483E
S214405420A847C7E7C0F7402070F8402028E440006F
S214405430B576400060ED400080E14000BD3A400057
S214405440F0B599B01446412849D00D4642285FD061
S214405450432875D0442800F0B0804B2800F0AD803B
S2144054604A2800F0CC80A0F14603DBB2072B00F2BE
S214405470F480852222FA03F313F0010F00F0ED804A
S214405480482814BF062709270023102203A92046D0
S214405490934EB047002840F0B0809DF91800BDF804
S2144054A01A10904A02EB001200231373BDF914E061
S2144054B0BDF81630BDF80E60ADF82660049E0A961C
S2144054C0D28892B2914200F0AC80102D40F2958086
S2144054D00123002211461046814CA0478DE0002350
S2144054E0042207A920467E4CA047002840F085802D
S2144054F09DF81D308DF80C307B4B1B68002B7CD004
S214405500794B1B6803AA01219DF91C00984774E05B
S2144055100023042207A92046714CA04700286CD1DE
S2144055209DF81D308DF80C306F4B1B68002B64D0F7
S2144055306D4B1B6803AA02219DF91C0098475CE04E
S21440554000230C220DEB02012046654CA0470028A4
S21440555053D19DF91530002B19DB624A02EB03123A
S2144055600021D1720121917260490A88013292B2BB
S2144055700A800A8892B21AB90A88013292B20A8020
S2144055805A4A118889B2574A02EB0312D1808DF8E5
S2144055901C300223ADF82030BDF80E30ADF8223076
S2144055A0049B0993504B1B683BB34F4B1B6807AAA1
S2144055B004219DF9140098471FE00023042207A900
S2144055C02046474CA047C0B99DF91C008DF80C00FA
S2144055D09DF91D308DF80D303BB9BDF81E30083BA7
S2144055E09BB2404A02EB001213813F4B1B6823B12B
S2144055F03D4B1B6803AA0521984719B0F0BD002310
S214405600442207A92046364CA0470028F5D1384BFF
S2144056101B68002BF1D0364B1B68179907A8984794
S214405620EBE7BEF1000F01DDAE450DDBADF820E047
S214405630002307932C4B1B68002BDED02A4B1B689D
S21440564007AA39469847D8E71FFA8EF200922344B5
S2144056503A4607A9274CA047CFE700F0FD03452B65
S21440566019D04C2817D05228C7D10123142207A995
S21440567020461B4CA0470028BFD11F4B089A1A60F3
S2144056801B68002BB9D01C4B1B689DF82C20099931
S21440569007989847B1E7472814BF072508250023F1
S2144056A0082207A920460E4CA0470028A5D19DF900
S2144056B01C00BDF82020BDF81E30ADF80C30094B5C
S2144056C003EB0013DB889BB29A4296D1064B1B68CD
S2144056D0002B92D0044B1B6803AA294698478CE7B8
S2144056E0BD3A4000C0F7402070F840204ADF4020D6
S2144056F078F840208553400074F8402008B50A4B9F
S2144057001B7803B108BDB02200210848084B9847D3
S21440571008490220084B98470122034B1A70002282
S214405720064B1A80EEE700BF49DF4020C0F7402016
S2144057306934400041544000D13B40004ADF40209D
S214405740024B1860024B1960704700BF70F840204B
S21440575078F84020F0B587B0022858D1012959D0B2
S214405760022916D10B26072425462E4B03EB04139D
S2144057709B7A002B51D0631CDBB22A4FDCB2B4427A
S21440578040D21D4607EB0311897A581C21B10346C7
S214405790F4E74FF0FF3437E0224800EB031016469C
S2144057A010220021204B98471E4B03EB0513012285
S2144057B09A721E4A138801339BB2138013889BB299
S2144057C01BB9138801339BB21380184B1A8892B2C8
S2144057D0144B03EB0513DA8064B216F0010F13D0B6
S2144057E006AA02F8044D0F4B03EB05152123EB7276
S2144057F000230293019300930423502102200C4D72
S214405800A84701E04FF0FF34204607B0F0BD4FF008
S214405810FF34F9E707260024A6E7024800EB041009
S214405820BDE700BFC0F74020693440004ADF402053
S214405830CD35400030B589B0041E36DB002934D063
S2144058401D4B03EB04139B7ADBB2002A30D0012BAE
S2144058502ED1194B03EB0413DB7A13F0010F22D041
S214405860154B03EB0413DB7A8DF81D304B258DF872
S2144058701C40082205A8114B98470F4800EB04101F
S214405880C388ADF81E3000230293019300930C2387
S21440589005AA294602200A4CA047002818BF6FF0E8
S2144058A0080009B030BD4425E1E76FF00500F8E791
S2144058B06FF00500F5E700BFC0F7402055344000C4
